{
  "contractName": "QwertyToken",
  "abi": [
    {
      "inputs": [],
      "name": "totalSupply",
      "outputs": [
        {
          "internalType": "uint256",
          "name": "",
          "type": "uint256"
        }
      ],
      "stateMutability": "view",
      "type": "function",
      "constant": true
    },
    {
      "inputs": [],
      "name": "qwertytoken",
      "outputs": [],
      "stateMutability": "nonpayable",
      "type": "function"
    }
  ],
  "bytecode": "0x608060405234801561001057600080fd5b5060d18061001f6000396000f3fe6080604052348015600f57600080fd5b506004361060325760003560e01c806318160ddd1460375780637775dce9146051575b600080fd5b603d6059565b604051604891906078565b60405180910390f35b6057605f565b005b60005481565b620f4240600081905550565b6072816091565b82525050565b6000602082019050608b6000830184606b565b92915050565b600081905091905056fea26469706673582212209765b3551420dc4ce5deedcadab7f1deec6e1726bcc9567b1d5f6770b10b573d64736f6c63430008000033",
  "immutableReferences": {},
  "source": "//https://eips.ethereum.org/EIPS/eip-20\npragma solidity ^0.8.0;\n\ncontract QwertyToken {\n    uint256 public totalSupply;\n\n    function qwertytoken () public {\n        totalSupply = 1000000;\n    }\n\n}\n",
  "sourcePath": "/home/lankas/qwerty/contracts/qwertToken.sol",
  "compiler": {
    "name": "solc",
    "version": "0.8.0+commit.c7dfd78e.Emscripten.clang"
  },
  "schemaVersion": "3.4.3",
  "updatedAt": "2021-12-15T11:48:39.125Z",
  "networkType": "ethereum",
  "devdoc": {
    "kind": "dev",
    "methods": {},
    "version": 1
  },
  "userdoc": {
    "kind": "user",
    "methods": {},
    "version": 1
  }
}