{
  "contractName": "QwertyToken",
  "abi": [
    {
      "inputs": [],
      "stateMutability": "nonpayable",
      "type": "constructor"
    },
    {
      "inputs": [],
      "name": "balance",
      "outputs": [
        {
          "internalType": "uint256",
          "name": "",
          "type": "uint256"
        }
      ],
      "stateMutability": "view",
      "type": "function",
      "constant": true
    },
    {
      "inputs": [],
      "name": "contribute",
      "outputs": [],
      "stateMutability": "payable",
      "type": "function",
      "payable": true
    }
  ],
  "bytecode": "0x608060405234801561001057600080fd5b5060008081905550610172806100276000396000f3fe6080604052600436106100295760003560e01c8063b69ef8a81461002e578063d7bb99ba14610059575b600080fd5b34801561003a57600080fd5b50610043610063565b6040516100509190610092565b60405180910390f35b610061610069565b005b60005481565b3460008082825461007a91906100ad565b92505081905550565b61008c81610103565b82525050565b60006020820190506100a76000830184610083565b92915050565b60006100b882610103565b91506100c383610103565b9250827fffffffffffffffffffffffffffffffffffffffffffffffffffffffffffffffff038211156100f8576100f761010d565b5b828201905092915050565b6000819050919050565b7f4e487b7100000000000000000000000000000000000000000000000000000000600052601160045260246000fdfea2646970667358221220e0857e49460a37de33163f5366d856f86ae9745abf08d25e01bf805bd85a1a2f64736f6c63430008000033",
  "immutableReferences": {},
  "source": "//https://eips.ethereum.org/EIPS/eip-20\npragma solidity ^0.8.0;\n\n// interface IERC20 {\n\n//     function totalSupply() external view returns (uint256);\n//     function balanceOf(address account) external view returns (uint256);\n//     function allowance(address owner, address spender) external view returns (uint256);\n\n//     function transfer(address recipient, uint256 amount) external returns (bool);\n//     function approve(address spender, uint256 amount) external returns (bool);\n//     function transferFrom(address sender, address recipient, uint256 amount) external returns (bool);\n\n\n//     event Transfer(address indexed from, address indexed to, uint256 value);\n//     event Approval(address indexed owner, address indexed spender, uint256 value);\n// }\n\n\n// contract QwertyToken is IERC20 {\n//     using SafeMath for uint256;\n\n//     string public constant name = \"QwertyToken\";\n//     string public constant symbol = \"QT\";\n//     uint8 public constant decimals = 18;\n//     //create an array for balances\n//     mapping(address => uint256) balances;\n//     //accounts that have allowed for to make a withdrawal\n//     mapping(address => mapping (address => uint256)) allowed;\n\n//     uint256 totalSupply_;\n\n//     constructor(uint256 total) public {\n//         totalSupply_ = total;\n//         balances[msg.sender] = totalSupply_;\n//     }\n\n//     function totalSupply() public override view returns (uint256) {\n//         return totalSupply_;\n//     }\n\n//     function balanceOf(address tokenOwner) public override view returns (uint256) {\n//         return balances[tokenOwner];\n//     }\n\n//     function transfer(address receiver, uint256 numTokens) public override returns (bool) {\n//         require(numTokens <= balances[msg.sender]);\n//         balances[msg.sender] = balances[msg.sender].sub(numTokens);\n//         balances[receiver] = balances[receiver].add(numTokens);\n//         emit Transfer(msg.sender, receiver, numTokens);\n//         return true;\n//     }\n\n//     function approve(address delegate, uint256 numTokens) public override returns (bool) {\n//         allowed[msg.sender][delegate] = numTokens;\n//         emit Approval(msg.sender, delegate, numTokens);\n//         return true;\n//     }\n\n//     function allowance(address owner, address delegate) public override view returns (uint) {\n//         return allowed[owner][delegate];\n//     }\n\n//     function transferFrom(address owner, address buyer, uint256 numTokens) public override returns (bool) {\n//         require(numTokens <= balances[owner]);\n//         require(numTokens <= allowed[owner][msg.sender]);\n\n//         balances[owner] = balances[owner].sub(numTokens);\n//         allowed[owner][msg.sender] = allowed[owner][msg.sender].sub(numTokens);\n//         balances[buyer] = balances[buyer].add(numTokens);\n//         emit Transfer(owner, buyer, numTokens);\n//         return true;\n//     }\n// }\n\n// library SafeMath {\n//     function sub(uint256 a, uint256 b) internal pure returns (uint256) {\n//       assert(b <= a);\n//       return a - b;\n//     }\n\n//     function add(uint256 a, uint256 b) internal pure returns (uint256) {\n//       uint256 c = a + b;\n//       assert(c >= a);\n//       return c;\n//     }\n// }\n\n\ncontract QwertyToken {\n    uint public balance;\n\n    // Initialize global variables\n    constructor() public\n    {\n        balance = 0;\n    }\n\n    // The payable keyword allows this function to accept Ether\n    function contribute() public payable\n    {\n        // msg.value is the value of Ether sent in a transaction\n        balance += msg.value;\n    }\n}\n",
  "sourcePath": "/home/lankas/qwerty/contracts/qwertToken.sol",
  "compiler": {
    "name": "solc",
    "version": "0.8.0+commit.c7dfd78e.Emscripten.clang"
  },
  "schemaVersion": "3.4.3",
  "updatedAt": "2021-12-15T13:22:02.894Z",
  "networkType": "ethereum",
  "devdoc": {
    "kind": "dev",
    "methods": {},
    "version": 1
  },
  "userdoc": {
    "kind": "user",
    "methods": {},
    "version": 1
  }
}