{
  "contractName": "QwertyToken",
  "abi": [
    {
      "inputs": [
        {
          "internalType": "uint256",
          "name": "_total",
          "type": "uint256"
        }
      ],
      "stateMutability": "nonpayable",
      "type": "constructor"
    },
    {
      "anonymous": false,
      "inputs": [
        {
          "indexed": true,
          "internalType": "address",
          "name": "_owner",
          "type": "address"
        },
        {
          "indexed": true,
          "internalType": "address",
          "name": "_spender",
          "type": "address"
        },
        {
          "indexed": false,
          "internalType": "uint256",
          "name": "_value",
          "type": "uint256"
        }
      ],
      "name": "Approval",
      "type": "event"
    },
    {
      "anonymous": false,
      "inputs": [
        {
          "indexed": true,
          "internalType": "address",
          "name": "_from",
          "type": "address"
        },
        {
          "indexed": true,
          "internalType": "address",
          "name": "_to",
          "type": "address"
        },
        {
          "indexed": false,
          "internalType": "uint256",
          "name": "_value",
          "type": "uint256"
        }
      ],
      "name": "Transfer",
      "type": "event"
    },
    {
      "inputs": [
        {
          "internalType": "address",
          "name": "",
          "type": "address"
        },
        {
          "internalType": "address",
          "name": "",
          "type": "address"
        }
      ],
      "name": "allowance",
      "outputs": [
        {
          "internalType": "uint256",
          "name": "",
          "type": "uint256"
        }
      ],
      "stateMutability": "view",
      "type": "function",
      "constant": true
    },
    {
      "inputs": [],
      "name": "name",
      "outputs": [
        {
          "internalType": "string",
          "name": "",
          "type": "string"
        }
      ],
      "stateMutability": "view",
      "type": "function",
      "constant": true
    },
    {
      "inputs": [],
      "name": "symbol",
      "outputs": [
        {
          "internalType": "string",
          "name": "",
          "type": "string"
        }
      ],
      "stateMutability": "view",
      "type": "function",
      "constant": true
    },
    {
      "inputs": [],
      "name": "totalSupply_",
      "outputs": [
        {
          "internalType": "uint256",
          "name": "",
          "type": "uint256"
        }
      ],
      "stateMutability": "view",
      "type": "function",
      "constant": true
    },
    {
      "inputs": [
        {
          "internalType": "address",
          "name": "_to",
          "type": "address"
        },
        {
          "internalType": "uint256",
          "name": "_value",
          "type": "uint256"
        }
      ],
      "name": "transfer",
      "outputs": [
        {
          "internalType": "bool",
          "name": "success",
          "type": "bool"
        }
      ],
      "stateMutability": "nonpayable",
      "type": "function"
    },
    {
      "inputs": [
        {
          "internalType": "address",
          "name": "_spender",
          "type": "address"
        },
        {
          "internalType": "uint256",
          "name": "_value",
          "type": "uint256"
        }
      ],
      "name": "approve",
      "outputs": [
        {
          "internalType": "bool",
          "name": "success",
          "type": "bool"
        }
      ],
      "stateMutability": "nonpayable",
      "type": "function"
    },
    {
      "inputs": [
        {
          "internalType": "address",
          "name": "_from",
          "type": "address"
        },
        {
          "internalType": "address",
          "name": "_to",
          "type": "address"
        },
        {
          "internalType": "uint256",
          "name": "_value",
          "type": "uint256"
        }
      ],
      "name": "transferFrom",
      "outputs": [
        {
          "internalType": "bool",
          "name": "success",
          "type": "bool"
        }
      ],
      "stateMutability": "nonpayable",
      "type": "function"
    },
    {
      "inputs": [
        {
          "internalType": "address",
          "name": "_owner",
          "type": "address"
        }
      ],
      "name": "balanceOf",
      "outputs": [
        {
          "internalType": "uint256",
          "name": "",
          "type": "uint256"
        }
      ],
      "stateMutability": "view",
      "type": "function",
      "constant": true
    }
  ],
  "bytecode": "0x60806040526040518060400160405280600c81526020017f51776572747920546f6b656e0000000000000000000000000000000000000000815250600390805190602001906200005192919062000126565b506040518060400160405280600381526020017f5157540000000000000000000000000000000000000000000000000000000000815250600490805190602001906200009f92919062000126565b50348015620000ad57600080fd5b5060405162001032380380620010328339818101604052810190620000d39190620001ed565b806002819055506002546000803373ffffffffffffffffffffffffffffffffffffffff1673ffffffffffffffffffffffffffffffffffffffff1681526020019081526020016000208190555050620002a2565b828054620001349062000223565b90600052602060002090601f016020900481019282620001585760008555620001a4565b82601f106200017357805160ff1916838001178555620001a4565b82800160010185558215620001a4579182015b82811115620001a357825182559160200191906001019062000186565b5b509050620001b39190620001b7565b5090565b5b80821115620001d2576000816000905550600101620001b8565b5090565b600081519050620001e78162000288565b92915050565b6000602082840312156200020057600080fd5b60006200021084828501620001d6565b91505092915050565b6000819050919050565b600060028204905060018216806200023c57607f821691505b6020821081141562000253576200025262000259565b5b50919050565b7f4e487b7100000000000000000000000000000000000000000000000000000000600052602260045260246000fd5b620002938162000219565b81146200029f57600080fd5b50565b610d8080620002b26000396000f3fe608060405234801561001057600080fd5b50600436106100885760003560e01c806370a082311161005b57806370a082311461012957806395d89b4114610159578063a9059cbb14610177578063dd62ed3e146101a757610088565b806306fdde031461008d578063095ea7b3146100ab57806323b872dd146100db578063324536eb1461010b575b600080fd5b6100956101d7565b6040516100a29190610b1d565b60405180910390f35b6100c560048036038101906100c09190610a6f565b610265565b6040516100d29190610b02565b60405180910390f35b6100f560048036038101906100f09190610a20565b610357565b6040516101029190610b02565b60405180910390f35b6101136106bd565b6040516101209190610b3f565b60405180910390f35b610143600480360381019061013e91906109bb565b6106c3565b6040516101509190610b3f565b60405180910390f35b61016161070b565b60405161016e9190610b1d565b60405180910390f35b610191600480360381019061018c9190610a6f565b610799565b60405161019e9190610b02565b60405180910390f35b6101c160048036038101906101bc91906109e4565b61096c565b6040516101ce9190610b3f565b60405180910390f35b600380546101e490610c7b565b80601f016020809104026020016040519081016040528092919081815260200182805461021090610c7b565b801561025d5780601f106102325761010080835404028352916020019161025d565b820191906000526020600020905b81548152906001019060200180831161024057829003601f168201915b505050505081565b600081600160003373ffffffffffffffffffffffffffffffffffffffff1673ffffffffffffffffffffffffffffffffffffffff16815260200190815260200160002060008573ffffffffffffffffffffffffffffffffffffffff1673ffffffffffffffffffffffffffffffffffffffff168152602001908152602001600020819055508273ffffffffffffffffffffffffffffffffffffffff163373ffffffffffffffffffffffffffffffffffffffff167f8c5be1e5ebec7d5bd14f71427d1e84f3dd0314c0f7b2291e5b200ac8c7c3b925846040516103459190610b3f565b60405180910390a36001905092915050565b60008060008573ffffffffffffffffffffffffffffffffffffffff1673ffffffffffffffffffffffffffffffffffffffff168152602001908152602001600020548211156103a457600080fd5b600160008573ffffffffffffffffffffffffffffffffffffffff1673ffffffffffffffffffffffffffffffffffffffff16815260200190815260200160002060003373ffffffffffffffffffffffffffffffffffffffff1673ffffffffffffffffffffffffffffffffffffffff1681526020019081526020016000205482111561042d57600080fd5b816000808673ffffffffffffffffffffffffffffffffffffffff1673ffffffffffffffffffffffffffffffffffffffff168152602001908152602001600020546104779190610bcc565b6000808673ffffffffffffffffffffffffffffffffffffffff1673ffffffffffffffffffffffffffffffffffffffff1681526020019081526020016000208190555081600160008673ffffffffffffffffffffffffffffffffffffffff1673ffffffffffffffffffffffffffffffffffffffff16815260200190815260200160002060003373ffffffffffffffffffffffffffffffffffffffff1673ffffffffffffffffffffffffffffffffffffffff168152602001908152602001600020546105419190610bcc565b600160008673ffffffffffffffffffffffffffffffffffffffff1673ffffffffffffffffffffffffffffffffffffffff16815260200190815260200160002060003373ffffffffffffffffffffffffffffffffffffffff1673ffffffffffffffffffffffffffffffffffffffff16815260200190815260200160002081905550816000808573ffffffffffffffffffffffffffffffffffffffff1673ffffffffffffffffffffffffffffffffffffffff1681526020019081526020016000205461060b9190610b76565b6000808573ffffffffffffffffffffffffffffffffffffffff1673ffffffffffffffffffffffffffffffffffffffff168152602001908152602001600020819055508273ffffffffffffffffffffffffffffffffffffffff168473ffffffffffffffffffffffffffffffffffffffff167fddf252ad1be2c89b69c2b068fc378daa952ba7f163c4a11628f55a4df523b3ef846040516106aa9190610b3f565b60405180910390a3600190509392505050565b60025481565b60008060008373ffffffffffffffffffffffffffffffffffffffff1673ffffffffffffffffffffffffffffffffffffffff168152602001908152602001600020549050919050565b6004805461071890610c7b565b80601f016020809104026020016040519081016040528092919081815260200182805461074490610c7b565b80156107915780601f1061076657610100808354040283529160200191610791565b820191906000526020600020905b81548152906001019060200180831161077457829003601f168201915b505050505081565b6000816000803373ffffffffffffffffffffffffffffffffffffffff1673ffffffffffffffffffffffffffffffffffffffff16815260200190815260200160002054116107e557600080fd5b816000803373ffffffffffffffffffffffffffffffffffffffff1673ffffffffffffffffffffffffffffffffffffffff1681526020019081526020016000205461082f9190610bcc565b6000803373ffffffffffffffffffffffffffffffffffffffff1673ffffffffffffffffffffffffffffffffffffffff16815260200190815260200160002081905550816000808573ffffffffffffffffffffffffffffffffffffffff1673ffffffffffffffffffffffffffffffffffffffff168152602001908152602001600020546108bb9190610b76565b6000808573ffffffffffffffffffffffffffffffffffffffff1673ffffffffffffffffffffffffffffffffffffffff168152602001908152602001600020819055508273ffffffffffffffffffffffffffffffffffffffff163373ffffffffffffffffffffffffffffffffffffffff167fddf252ad1be2c89b69c2b068fc378daa952ba7f163c4a11628f55a4df523b3ef8460405161095a9190610b3f565b60405180910390a36001905092915050565b6001602052816000526040600020602052806000526040600020600091509150505481565b6000813590506109a081610d1c565b92915050565b6000813590506109b581610d33565b92915050565b6000602082840312156109cd57600080fd5b60006109db84828501610991565b91505092915050565b600080604083850312156109f757600080fd5b6000610a0585828601610991565b9250506020610a1685828601610991565b9150509250929050565b600080600060608486031215610a3557600080fd5b6000610a4386828701610991565b9350506020610a5486828701610991565b9250506040610a65868287016109a6565b9150509250925092565b60008060408385031215610a8257600080fd5b6000610a9085828601610991565b9250506020610aa1858286016109a6565b9150509250929050565b610ab481610c12565b82525050565b6000610ac582610b5a565b610acf8185610b65565b9350610adf818560208601610c48565b610ae881610d0b565b840191505092915050565b610afc81610c3e565b82525050565b6000602082019050610b176000830184610aab565b92915050565b60006020820190508181036000830152610b378184610aba565b905092915050565b6000602082019050610b546000830184610af3565b92915050565b600081519050919050565b600082825260208201905092915050565b6000610b8182610c3e565b9150610b8c83610c3e565b9250827fffffffffffffffffffffffffffffffffffffffffffffffffffffffffffffffff03821115610bc157610bc0610cad565b5b828201905092915050565b6000610bd782610c3e565b9150610be283610c3e565b925082821015610bf557610bf4610cad565b5b828203905092915050565b6000610c0b82610c1e565b9050919050565b60008115159050919050565b600073ffffffffffffffffffffffffffffffffffffffff82169050919050565b6000819050919050565b60005b83811015610c66578082015181840152602081019050610c4b565b83811115610c75576000848401525b50505050565b60006002820490506001821680610c9357607f821691505b60208210811415610ca757610ca6610cdc565b5b50919050565b7f4e487b7100000000000000000000000000000000000000000000000000000000600052601160045260246000fd5b7f4e487b7100000000000000000000000000000000000000000000000000000000600052602260045260246000fd5b6000601f19601f8301169050919050565b610d2581610c00565b8114610d3057600080fd5b50565b610d3c81610c3e565b8114610d4757600080fd5b5056fea2646970667358221220cb46fc738fe999a7770abb60aceaf539b11c17aebaf1caac701c53cf507709c364736f6c63430008000033",
  "immutableReferences": {},
  "source": "// contracts/GLDToken.sol\n// SPDX-License-Identifier: MIT\npragma solidity >=0.4.22 <0.9.0;\n\nimport \"@openzeppelin/contracts/token/ERC721/ERC721.sol\";\n\ncontract QwertyToken{\n    mapping (address => uint256) balance;\n    mapping(address => mapping(address => uint256 )) public allowance;\n\n    uint256 public totalSupply_;\n    string public name = \"Qwerty Token\";\n    string public symbol = \"QWT\";\n\n    event Transfer(\n        address indexed _from, \n        address indexed _to, \n        uint256 _value);\n\n    event Approval(\n        address indexed _owner, \n        address indexed _spender, \n        uint256 _value);\n\n    constructor (uint256 _total) {\n        totalSupply_ = _total;\n        balance[msg.sender]= totalSupply_;\n    }\n\n    function transfer(address _to, uint256 _value) public returns (bool success) {\n        //check that the sender has more than the value to be sent\n        require(balance[msg.sender] > _value);\n        balance[msg.sender] = balance[msg.sender] - _value;\n        balance[_to] = balance[_to] + _value;\n        emit Transfer(msg.sender, _to, _value);\n        return true;\n    }\n    function approve(address _spender, uint256 _value) public returns (bool success){\n        // approve the spender to spend funds from your account\n        //allowance\n        allowance[msg.sender][_spender] = _value;\n        // allow and approve\n        emit Approval(msg.sender, _spender, _value);\n        return true;\n    }\n\n    function transferFrom(address _from, address _to, uint256 _value) public returns (bool success){\n        //check that the _from  address has enough tokens\n        require(_value <= balance[_from]);\n        //check that the allowance is enough\n        require (_value <= allowance[_from][msg.sender]);\n        //deduct transfered tokens from the balance\n        balance[_from] = balance[_from] - _value;\n        //change allowance\n        allowance[_from][msg.sender] = allowance[_from][msg.sender] - _value;\n        //update _to account balace\n        balance[_to] = balance[_to] + _value;\n\n        emit Transfer(_from, _to, _value);\n        return true;\n    }\n\n    function balanceOf(address _owner) public view returns (uint){\n        return balance[_owner];\n    }\n}\n",
  "sourcePath": "/home/naiyoma/ERC-20_Token/contracts/QwertyToken.sol",
  "compiler": {
    "name": "solc",
    "version": "0.8.0+commit.c7dfd78e.Emscripten.clang"
  },
  "schemaVersion": "3.4.4",
  "updatedAt": "2022-01-17T14:23:58.716Z",
  "networkType": "ethereum",
  "devdoc": {
    "kind": "dev",
    "methods": {},
    "version": 1
  },
  "userdoc": {
    "kind": "user",
    "methods": {},
    "version": 1
  }
}