{
  "contractName": "QwertyTokenSale",
  "abi": [
    {
      "anonymous": false,
      "inputs": [
        {
          "indexed": false,
          "internalType": "address",
          "name": "_buyer",
          "type": "address"
        },
        {
          "indexed": false,
          "internalType": "uint256",
          "name": "_amount",
          "type": "uint256"
        }
      ],
      "name": "Sell",
      "type": "event"
    },
    {
      "inputs": [],
      "name": "tokenContract",
      "outputs": [
        {
          "internalType": "contract QwertyToken",
          "name": "",
          "type": "address"
        }
      ],
      "stateMutability": "view",
      "type": "function",
      "constant": true
    },
    {
      "inputs": [],
      "name": "tokenPrice",
      "outputs": [
        {
          "internalType": "uint256",
          "name": "",
          "type": "uint256"
        }
      ],
      "stateMutability": "view",
      "type": "function",
      "constant": true
    },
    {
      "inputs": [],
      "name": "tokenSold",
      "outputs": [
        {
          "internalType": "uint256",
          "name": "",
          "type": "uint256"
        }
      ],
      "stateMutability": "view",
      "type": "function",
      "constant": true
    },
    {
      "inputs": [
        {
          "internalType": "contract QwertyToken",
          "name": "_tokenContract",
          "type": "address"
        },
        {
          "internalType": "uint256",
          "name": "_tokenPrice",
          "type": "uint256"
        }
      ],
      "name": "tokenSale",
      "outputs": [],
      "stateMutability": "nonpayable",
      "type": "function"
    },
    {
      "inputs": [
        {
          "internalType": "uint256",
          "name": "_numberOfTokens",
          "type": "uint256"
        }
      ],
      "name": "buyTokens",
      "outputs": [],
      "stateMutability": "payable",
      "type": "function",
      "payable": true
    },
    {
      "inputs": [],
      "name": "endSale",
      "outputs": [],
      "stateMutability": "nonpayable",
      "type": "function"
    }
  ],
  "bytecode": "0x608060405234801561001057600080fd5b50610a41806100206000396000f3fe6080604052600436106100555760003560e01c80633610724e1461005a5780633726cdea14610076578063380d831b1461009f578063519ee19e146100b657806355a373d6146100e15780637ff9b5961461010c575b600080fd5b610074600480360381019061006f91906106d3565b610137565b005b34801561008257600080fd5b5061009d60048036038101906100989190610697565b610380565b005b3480156100ab57600080fd5b506100b461040c565b005b3480156100c257600080fd5b506100cb6105e8565b6040516100d89190610897565b60405180910390f35b3480156100ed57600080fd5b506100f66105ee565b604051610103919061083c565b60405180910390f35b34801561011857600080fd5b50610121610614565b60405161012e9190610897565b60405180910390f35b60003490506000600160009054906101000a900473ffffffffffffffffffffffffffffffffffffffff1673ffffffffffffffffffffffffffffffffffffffff166370a08231306040518263ffffffff1660e01b815260040161019991906107f8565b60206040518083038186803b1580156101b157600080fd5b505afa1580156101c5573d6000803e3d6000fd5b505050506040513d601f19601f820116820180604052508101906101e991906106fc565b90506000821161022e576040517f08c379a000000000000000000000000000000000000000000000000000000000815260040161022590610877565b60405180910390fd5b80821115610271576040517f08c379a000000000000000000000000000000000000000000000000000000000815260040161026890610857565b60405180910390fd5b600160009054906101000a900473ffffffffffffffffffffffffffffffffffffffff1673ffffffffffffffffffffffffffffffffffffffff1663a9059cbb33856040518363ffffffff1660e01b81526004016102ce929190610813565b602060405180830381600087803b1580156102e857600080fd5b505af11580156102fc573d6000803e3d6000fd5b505050506040513d601f19601f82011682018060405250810190610320919061066e565b61032957600080fd5b826003600082825461033b91906108c3565b925050819055507f5e5e995ce3133561afceaa51a9a154d5db228cd7525d34df5185582c18d3df093384604051610373929190610813565b60405180910390a1505050565b336000806101000a81548173ffffffffffffffffffffffffffffffffffffffff021916908373ffffffffffffffffffffffffffffffffffffffff16021790555081600160006101000a81548173ffffffffffffffffffffffffffffffffffffffff021916908373ffffffffffffffffffffffffffffffffffffffff160217905550806002819055505050565b60008054906101000a900473ffffffffffffffffffffffffffffffffffffffff1673ffffffffffffffffffffffffffffffffffffffff163373ffffffffffffffffffffffffffffffffffffffff161461046457600080fd5b600160009054906101000a900473ffffffffffffffffffffffffffffffffffffffff1673ffffffffffffffffffffffffffffffffffffffff1663a9059cbb60008054906101000a900473ffffffffffffffffffffffffffffffffffffffff16600160009054906101000a900473ffffffffffffffffffffffffffffffffffffffff1673ffffffffffffffffffffffffffffffffffffffff166370a08231306040518263ffffffff1660e01b815260040161051e91906107f8565b60206040518083038186803b15801561053657600080fd5b505afa15801561054a573d6000803e3d6000fd5b505050506040513d601f19601f8201168201806040525081019061056e91906106fc565b6040518363ffffffff1660e01b815260040161058b929190610813565b602060405180830381600087803b1580156105a557600080fd5b505af11580156105b9573d6000803e3d6000fd5b505050506040513d601f19601f820116820180604052508101906105dd919061066e565b6105e657600080fd5b565b60035481565b600160009054906101000a900473ffffffffffffffffffffffffffffffffffffffff1681565b60025481565b600081519050610629816109c6565b92915050565b60008135905061063e816109dd565b92915050565b600081359050610653816109f4565b92915050565b600081519050610668816109f4565b92915050565b60006020828403121561068057600080fd5b600061068e8482850161061a565b91505092915050565b600080604083850312156106aa57600080fd5b60006106b88582860161062f565b92505060206106c985828601610644565b9150509250929050565b6000602082840312156106e557600080fd5b60006106f384828501610644565b91505092915050565b60006020828403121561070e57600080fd5b600061071c84828501610659565b91505092915050565b61072e81610919565b82525050565b61073d81610973565b82525050565b60006107506027836108b2565b91507f546865207265736572766520646f6573206e6f74206861766520656e6f75676860008301527f20746f6b656e73000000000000000000000000000000000000000000000000006020830152604082019050919050565b60006107b66017836108b2565b91507f796f75722062616c616e63652076616c756520697320300000000000000000006000830152602082019050919050565b6107f281610969565b82525050565b600060208201905061080d6000830184610725565b92915050565b60006040820190506108286000830185610725565b61083560208301846107e9565b9392505050565b60006020820190506108516000830184610734565b92915050565b6000602082019050818103600083015261087081610743565b9050919050565b60006020820190508181036000830152610890816107a9565b9050919050565b60006020820190506108ac60008301846107e9565b92915050565b600082825260208201905092915050565b60006108ce82610969565b91506108d983610969565b9250827fffffffffffffffffffffffffffffffffffffffffffffffffffffffffffffffff0382111561090e5761090d610997565b5b828201905092915050565b600061092482610949565b9050919050565b60008115159050919050565b600061094282610919565b9050919050565b600073ffffffffffffffffffffffffffffffffffffffff82169050919050565b6000819050919050565b600061097e82610985565b9050919050565b600061099082610949565b9050919050565b7f4e487b7100000000000000000000000000000000000000000000000000000000600052601160045260246000fd5b6109cf8161092b565b81146109da57600080fd5b50565b6109e681610937565b81146109f157600080fd5b50565b6109fd81610969565b8114610a0857600080fd5b5056fea264697066735822122055f0b52995a7fbdf445ff8b510cf6e7904ce17ce2e2e07ce6b0647262987b2ad64736f6c63430008000033",
  "immutableReferences": {},
  "source": "// contracts/GLDToken.sol\n// SPDX-License-Identifier: MIT\npragma solidity >=0.4.22 <0.9.0;\n\nimport \"./QwertyToken.sol\";\n\ncontract QwertyTokenSale {\n    address admin;\n    QwertyToken public tokenContract;\n    uint256 public tokenPrice;\n    uint256 public tokenSold;\n\n    event Sell(\n        address _buyer,\n        uint256 _amount);\n\n    function tokenSale(QwertyToken _tokenContract, uint256 _tokenPrice) public{\n        admin = msg.sender;\n        tokenContract = _tokenContract;\n        tokenPrice = _tokenPrice;\n    }\n\n    function mul(uint x, uint y) internal pure returns (uint z) {\n        require(y == 0 || (z=x*y)/y ==x);\n    }\n    function buyTokens(uint256 _numberOfTokens) public payable{\n        //Inorder to sell the tokens\n            //1.Triger the sell event\n            //2.check the value of existing tokens\n            //3.keep track of sold tokens\n            //4.check for a sucessful transfer\n        uint256 amountTobuy = msg.value;\n        uint256 contractBalance = tokenContract.balanceOf(address(this));\n        require(amountTobuy > 0,  \"your balance value is 0\");\n        require(amountTobuy <= contractBalance, \"The reserve does not have enough tokens\");\n        require(tokenContract.transfer(msg.sender, _numberOfTokens));\n        tokenSold += _numberOfTokens;\n        emit Sell(msg.sender, _numberOfTokens);\n    }\n    // end the tken sal\n    function endSale() public {\n        require(msg.sender == admin);\n        require(tokenContract.transfer(admin, tokenContract.balanceOf(address(this))));\n    }\n\n    \n}",
  "sourcePath": "/home/naiyoma/ERC-20_Token/contracts/QwertyTokenSale.sol",
  "compiler": {
    "name": "solc",
    "version": "0.8.0+commit.c7dfd78e.Emscripten.clang"
  },
  "schemaVersion": "3.4.4",
  "updatedAt": "2022-01-23T13:36:17.678Z",
  "networkType": "ethereum",
  "devdoc": {
    "kind": "dev",
    "methods": {},
    "version": 1
  },
  "userdoc": {
    "kind": "user",
    "methods": {},
    "version": 1
  }
}