{
  "contractName": "QwertyToken",
  "abi": [
    {
      "inputs": [
        {
          "internalType": "uint256",
          "name": "_total",
          "type": "uint256"
        }
      ],
      "stateMutability": "nonpayable",
      "type": "constructor"
    },
    {
      "anonymous": false,
      "inputs": [
        {
          "indexed": true,
          "internalType": "address",
          "name": "_owner",
          "type": "address"
        },
        {
          "indexed": true,
          "internalType": "address",
          "name": "_spender",
          "type": "address"
        },
        {
          "indexed": false,
          "internalType": "uint256",
          "name": "_value",
          "type": "uint256"
        }
      ],
      "name": "Approval",
      "type": "event"
    },
    {
      "anonymous": false,
      "inputs": [
        {
          "indexed": true,
          "internalType": "address",
          "name": "_from",
          "type": "address"
        },
        {
          "indexed": true,
          "internalType": "address",
          "name": "_to",
          "type": "address"
        },
        {
          "indexed": false,
          "internalType": "uint256",
          "name": "_value",
          "type": "uint256"
        }
      ],
      "name": "Transfer",
      "type": "event"
    },
    {
      "inputs": [
        {
          "internalType": "address",
          "name": "",
          "type": "address"
        },
        {
          "internalType": "address",
          "name": "",
          "type": "address"
        }
      ],
      "name": "allowance",
      "outputs": [
        {
          "internalType": "uint256",
          "name": "",
          "type": "uint256"
        }
      ],
      "stateMutability": "view",
      "type": "function",
      "constant": true
    },
    {
      "inputs": [],
      "name": "name",
      "outputs": [
        {
          "internalType": "string",
          "name": "",
          "type": "string"
        }
      ],
      "stateMutability": "view",
      "type": "function",
      "constant": true
    },
    {
      "inputs": [],
      "name": "symbol",
      "outputs": [
        {
          "internalType": "string",
          "name": "",
          "type": "string"
        }
      ],
      "stateMutability": "view",
      "type": "function",
      "constant": true
    },
    {
      "inputs": [],
      "name": "totalSupply_",
      "outputs": [
        {
          "internalType": "uint256",
          "name": "",
          "type": "uint256"
        }
      ],
      "stateMutability": "view",
      "type": "function",
      "constant": true
    },
    {
      "inputs": [
        {
          "internalType": "address",
          "name": "_to",
          "type": "address"
        },
        {
          "internalType": "uint256",
          "name": "_value",
          "type": "uint256"
        }
      ],
      "name": "transfer",
      "outputs": [
        {
          "internalType": "bool",
          "name": "success",
          "type": "bool"
        }
      ],
      "stateMutability": "nonpayable",
      "type": "function"
    },
    {
      "inputs": [
        {
          "internalType": "address",
          "name": "_spender",
          "type": "address"
        },
        {
          "internalType": "uint256",
          "name": "_value",
          "type": "uint256"
        }
      ],
      "name": "approve",
      "outputs": [
        {
          "internalType": "bool",
          "name": "success",
          "type": "bool"
        }
      ],
      "stateMutability": "nonpayable",
      "type": "function"
    },
    {
      "inputs": [
        {
          "internalType": "address",
          "name": "_from",
          "type": "address"
        },
        {
          "internalType": "address",
          "name": "_to",
          "type": "address"
        },
        {
          "internalType": "uint256",
          "name": "_value",
          "type": "uint256"
        }
      ],
      "name": "transferFrom",
      "outputs": [
        {
          "internalType": "bool",
          "name": "success",
          "type": "bool"
        }
      ],
      "stateMutability": "nonpayable",
      "type": "function"
    }
  ],
  "bytecode": "0x60806040526040518060400160405280600c81526020017f51776572747920546f6b656e0000000000000000000000000000000000000000815250600390805190602001906200005192919062000126565b506040518060400160405280600381526020017f5157540000000000000000000000000000000000000000000000000000000000815250600490805190602001906200009f92919062000126565b50348015620000ad57600080fd5b5060405162000f8638038062000f868339818101604052810190620000d39190620001ed565b806002819055506002546000803373ffffffffffffffffffffffffffffffffffffffff1673ffffffffffffffffffffffffffffffffffffffff1681526020019081526020016000208190555050620002a2565b828054620001349062000223565b90600052602060002090601f016020900481019282620001585760008555620001a4565b82601f106200017357805160ff1916838001178555620001a4565b82800160010185558215620001a4579182015b82811115620001a357825182559160200191906001019062000186565b5b509050620001b39190620001b7565b5090565b5b80821115620001d2576000816000905550600101620001b8565b5090565b600081519050620001e78162000288565b92915050565b6000602082840312156200020057600080fd5b60006200021084828501620001d6565b91505092915050565b6000819050919050565b600060028204905060018216806200023c57607f821691505b6020821081141562000253576200025262000259565b5b50919050565b7f4e487b7100000000000000000000000000000000000000000000000000000000600052602260045260246000fd5b620002938162000219565b81146200029f57600080fd5b50565b610cd480620002b26000396000f3fe608060405234801561001057600080fd5b506004361061007d5760003560e01c8063324536eb1161005b578063324536eb1461010057806395d89b411461011e578063a9059cbb1461013c578063dd62ed3e1461016c5761007d565b806306fdde0314610082578063095ea7b3146100a057806323b872dd146100d0575b600080fd5b61008a61019c565b6040516100979190610a71565b60405180910390f35b6100ba60048036038101906100b591906109c3565b61022a565b6040516100c79190610a56565b60405180910390f35b6100ea60048036038101906100e59190610974565b61031c565b6040516100f79190610a56565b60405180910390f35b610108610682565b6040516101159190610a93565b60405180910390f35b610126610688565b6040516101339190610a71565b60405180910390f35b610156600480360381019061015191906109c3565b610716565b6040516101639190610a56565b60405180910390f35b61018660048036038101906101819190610938565b6108e9565b6040516101939190610a93565b60405180910390f35b600380546101a990610bcf565b80601f01602080910402602001604051908101604052809291908181526020018280546101d590610bcf565b80156102225780601f106101f757610100808354040283529160200191610222565b820191906000526020600020905b81548152906001019060200180831161020557829003601f168201915b505050505081565b600081600160003373ffffffffffffffffffffffffffffffffffffffff1673ffffffffffffffffffffffffffffffffffffffff16815260200190815260200160002060008573ffffffffffffffffffffffffffffffffffffffff1673ffffffffffffffffffffffffffffffffffffffff168152602001908152602001600020819055508273ffffffffffffffffffffffffffffffffffffffff163373ffffffffffffffffffffffffffffffffffffffff167f8c5be1e5ebec7d5bd14f71427d1e84f3dd0314c0f7b2291e5b200ac8c7c3b9258460405161030a9190610a93565b60405180910390a36001905092915050565b60008060008573ffffffffffffffffffffffffffffffffffffffff1673ffffffffffffffffffffffffffffffffffffffff1681526020019081526020016000205482111561036957600080fd5b600160008573ffffffffffffffffffffffffffffffffffffffff1673ffffffffffffffffffffffffffffffffffffffff16815260200190815260200160002060003373ffffffffffffffffffffffffffffffffffffffff1673ffffffffffffffffffffffffffffffffffffffff168152602001908152602001600020548211156103f257600080fd5b816000808673ffffffffffffffffffffffffffffffffffffffff1673ffffffffffffffffffffffffffffffffffffffff1681526020019081526020016000205461043c9190610b20565b6000808673ffffffffffffffffffffffffffffffffffffffff1673ffffffffffffffffffffffffffffffffffffffff1681526020019081526020016000208190555081600160008673ffffffffffffffffffffffffffffffffffffffff1673ffffffffffffffffffffffffffffffffffffffff16815260200190815260200160002060003373ffffffffffffffffffffffffffffffffffffffff1673ffffffffffffffffffffffffffffffffffffffff168152602001908152602001600020546105069190610b20565b600160008673ffffffffffffffffffffffffffffffffffffffff1673ffffffffffffffffffffffffffffffffffffffff16815260200190815260200160002060003373ffffffffffffffffffffffffffffffffffffffff1673ffffffffffffffffffffffffffffffffffffffff16815260200190815260200160002081905550816000808573ffffffffffffffffffffffffffffffffffffffff1673ffffffffffffffffffffffffffffffffffffffff168152602001908152602001600020546105d09190610aca565b6000808573ffffffffffffffffffffffffffffffffffffffff1673ffffffffffffffffffffffffffffffffffffffff168152602001908152602001600020819055508273ffffffffffffffffffffffffffffffffffffffff168473ffffffffffffffffffffffffffffffffffffffff167fddf252ad1be2c89b69c2b068fc378daa952ba7f163c4a11628f55a4df523b3ef8460405161066f9190610a93565b60405180910390a3600190509392505050565b60025481565b6004805461069590610bcf565b80601f01602080910402602001604051908101604052809291908181526020018280546106c190610bcf565b801561070e5780601f106106e35761010080835404028352916020019161070e565b820191906000526020600020905b8154815290600101906020018083116106f157829003601f168201915b505050505081565b6000816000803373ffffffffffffffffffffffffffffffffffffffff1673ffffffffffffffffffffffffffffffffffffffff168152602001908152602001600020541161076257600080fd5b816000803373ffffffffffffffffffffffffffffffffffffffff1673ffffffffffffffffffffffffffffffffffffffff168152602001908152602001600020546107ac9190610b20565b6000803373ffffffffffffffffffffffffffffffffffffffff1673ffffffffffffffffffffffffffffffffffffffff16815260200190815260200160002081905550816000808573ffffffffffffffffffffffffffffffffffffffff1673ffffffffffffffffffffffffffffffffffffffff168152602001908152602001600020546108389190610aca565b6000808573ffffffffffffffffffffffffffffffffffffffff1673ffffffffffffffffffffffffffffffffffffffff168152602001908152602001600020819055508273ffffffffffffffffffffffffffffffffffffffff163373ffffffffffffffffffffffffffffffffffffffff167fddf252ad1be2c89b69c2b068fc378daa952ba7f163c4a11628f55a4df523b3ef846040516108d79190610a93565b60405180910390a36001905092915050565b6001602052816000526040600020602052806000526040600020600091509150505481565b60008135905061091d81610c70565b92915050565b60008135905061093281610c87565b92915050565b6000806040838503121561094b57600080fd5b60006109598582860161090e565b925050602061096a8582860161090e565b9150509250929050565b60008060006060848603121561098957600080fd5b60006109978682870161090e565b93505060206109a88682870161090e565b92505060406109b986828701610923565b9150509250925092565b600080604083850312156109d657600080fd5b60006109e48582860161090e565b92505060206109f585828601610923565b9150509250929050565b610a0881610b66565b82525050565b6000610a1982610aae565b610a238185610ab9565b9350610a33818560208601610b9c565b610a3c81610c5f565b840191505092915050565b610a5081610b92565b82525050565b6000602082019050610a6b60008301846109ff565b92915050565b60006020820190508181036000830152610a8b8184610a0e565b905092915050565b6000602082019050610aa86000830184610a47565b92915050565b600081519050919050565b600082825260208201905092915050565b6000610ad582610b92565b9150610ae083610b92565b9250827fffffffffffffffffffffffffffffffffffffffffffffffffffffffffffffffff03821115610b1557610b14610c01565b5b828201905092915050565b6000610b2b82610b92565b9150610b3683610b92565b925082821015610b4957610b48610c01565b5b828203905092915050565b6000610b5f82610b72565b9050919050565b60008115159050919050565b600073ffffffffffffffffffffffffffffffffffffffff82169050919050565b6000819050919050565b60005b83811015610bba578082015181840152602081019050610b9f565b83811115610bc9576000848401525b50505050565b60006002820490506001821680610be757607f821691505b60208210811415610bfb57610bfa610c30565b5b50919050565b7f4e487b7100000000000000000000000000000000000000000000000000000000600052601160045260246000fd5b7f4e487b7100000000000000000000000000000000000000000000000000000000600052602260045260246000fd5b6000601f19601f8301169050919050565b610c7981610b54565b8114610c8457600080fd5b50565b610c9081610b92565b8114610c9b57600080fd5b5056fea26469706673582212207e44b0335a410d0681b49dc8a8e9f7445e163a1168b733188d65a23d62eb64e864736f6c63430008000033",
  "immutableReferences": {},
  "source": "// contracts/GLDToken.sol\n// SPDX-License-Identifier: MIT\npragma solidity >=0.4.22 <0.9.0;\n\nimport \"@openzeppelin/contracts/token/ERC721/ERC721.sol\";\n\ncontract QwertyToken{\n    mapping (address => uint256) balance;\n    mapping(address => mapping(address => uint256 )) public allowance;\n\n    uint256 public totalSupply_;\n    string public name = \"Qwerty Token\";\n    string public symbol = \"QWT\";\n\n    event Transfer(\n        address indexed _from, \n        address indexed _to, \n        uint256 _value);\n\n    event Approval(\n        address indexed _owner, \n        address indexed _spender, \n        uint256 _value);\n\n    constructor (uint256 _total) {\n        totalSupply_ = _total;\n        balance[msg.sender]= totalSupply_;\n    }\n\n    function transfer(address _to, uint256 _value) public returns (bool success) {\n        //check that the sender has more than the value to be sent\n        require(balance[msg.sender] > _value);\n        balance[msg.sender] = balance[msg.sender] - _value;\n        balance[_to] = balance[_to] + _value;\n        emit Transfer(msg.sender, _to, _value);\n        return true;\n    }\n    function approve(address _spender, uint256 _value) public returns (bool success){\n        // approve the spender to spend funds from your account\n        //allowance\n        allowance[msg.sender][_spender] = _value;\n        // allow and approve\n        emit Approval(msg.sender, _spender, _value);\n        return true;\n    }\n\n    function transferFrom(address _from, address _to, uint256 _value) public returns (bool success){\n        //check that the _from  address has enough tokens\n        require(_value <= balance[_from]);\n        //check that the allowance is enough\n        require (_value <= allowance[_from][msg.sender]);\n        //deduct transfered tokens from the balance\n        balance[_from] = balance[_from] - _value;\n        //change allowance\n        allowance[_from][msg.sender] = allowance[_from][msg.sender] - _value;\n        //update _to account balace\n        balance[_to] = balance[_to] + _value;\n        \n        emit Transfer(_from, _to, _value);\n        return true;\n    }\n\n}\n",
  "sourcePath": "/home/naiyoma/ERC-20_Token/contracts/qwertToken.sol",
  "compiler": {
    "name": "solc",
    "version": "0.8.0+commit.c7dfd78e.Emscripten.clang"
  },
  "schemaVersion": "3.4.4",
  "updatedAt": "2022-01-13T21:36:45.326Z",
  "networkType": "ethereum",
  "devdoc": {
    "kind": "dev",
    "methods": {},
    "version": 1
  },
  "userdoc": {
    "kind": "user",
    "methods": {},
    "version": 1
  }
}